:0200000480007A
:100000000F100000814001418141014281420143C2
:1000100081430144814401458145014681460147B0
:1000200081470148814801498149014A814A014B80
:10003000814B014C814C014D814D014E814E014F50
:10004000814FF96273A00230970200009382020987
:100050007390523073103000530000F0D30000F062
:10006000530100F0D30100F0530200F0D30200F07E
:10007000530300F0D30300F0530400F0D30400F066
:10008000530500F0D30500F0530600F0D30600F04E
:10009000530700F0D30700F0530800F0D30800F036
:1000A000530900F0D30900F0530A00F0D30A00F01E
:1000B000530B00F0D30B00F0530C00F0D30C00F006
:1000C000530D00F0D30D00F0530E00F0D30E00F0EE
:1000D000530F00F0D30F00F097020000938202024A
:1000E00073905230971100A093818119170102A0DB
:1000F000130141F16F006012197102E006E20AE497
:100100000EE612E816EA1AEC1EEE22F026F22AF4A7
:100110002EF632F836FA3AFC3EFEC2E0C6E2CAE4F7
:10012000CEE6D2E8D6EADAECDEEEE2F0E6F2EAF487
:10013000EEF6F2F8F6FAFAFCFEFE197106C00AC2F3
:100140000EC412C616C81ACA1ECC22CE26D02AD277
:100150002ED432D636D83ADA3EDC42DEC6C0CAC227
:10016000CEC4D2C6D6C8DACADECCE2CEE6D0EAD257
:10017000EED4F2D6F6D8FADAFEDC73252034F32575
:100180001034AEDE0A86EF10106F8962938202800F
:1001900073A0023082401241A2413242C242524315
:1001A000E243724482541255A2553256C2565257F7
:1001B000E257725886481649A649364AC64A564BEF
:1001C000E64B764C865C165DA65D365EC65E565F77
:1001D000E65F0961026092602261B2614262D262AE
:1001E0006263F263027492742275B2754276D276BB
:1001F0006277F277066896682669B669466AD66AB3
:10020000666BF66B067C967C267DB67D467ED67E3A
:10021000667FF67F096173002030797106D622D49B
:100220000018232EA4FC930700003E86B707008029
:1002300093858744B707008013858744592893071F
:1002400000003E86B707008093858744B7070010FB
:1002500013850700BD2885679387C7A73E86B737F4
:10026000008093858768B7070020138507009520D5
:10027000930780003E86B747008093854710B717E5
:1002800000201385C7A7B120930700003E86B7075B
:10029000008093858744B707002013850700152841
:1002A000930700003E86814513858180F9289307D6
:1002B00040003E86814513858180C12881450145E6
:1002C000EF1080132326A4FE0100B2502254456192
:1002D0008280797122D60018232EA4FC232CB4FC32
:1002E000232AC4FC0327C4FD832784FD5D8F832755
:1002F00044FDD98F8D8BB1E3832784FD2326F4FE43
:100300008327C4FD2324F4FE39A80327C4FE9307E2
:1003100047002326F4FE832784FE93864700232488
:10032000D4FE184398C30327C4FD832744FDBA971E
:10033000032784FEE36BF7FC99A0832784FD232227
:10034000F4FE8327C4FD2320F4FE0DA0032744FE02
:10035000930717002322F4FE832704FE93861700D9
:100360002320D4FE034707002380E7000327C4FDB2
:10037000832744FDBA97032704FEE369F7FC83272C
:10038000C4FD3E85325445618280797122D60018C1
:10039000232EA4FC232CB4FC232AC4FC0327C4FD75
:1003A000832744FDD98F8D8BB9EF832784FD93F785
:1003B000F70F2322F4FE832744FEA207032744FEFF
:1003C000D98F2322F4FE832744FEC207032744FE6D
:1003D000D98F2322F4FE8327C4FD2326F4FE11A81F
:1003E0008327C4FE138747002326E4FE032744FE29
:1003F00098C30327C4FD832744FDBA970327C4FE8F
:10040000E360F7FE1DA88327C4FD2324F4FE29A87A
:10041000832784FE138717002324E4FE032784FD2B
:100420001377F70F2380E7000327C4FD832744FDDC
:10043000BA97032784FEE36DF7FC8327C4FD3E854E
:08044000325445618280000086
:10044800797106D622D40018AA87231FF4FCAE8738
:10045800231EF4FCB287231DF4FCB687231CF4FC8E
:10046800BA87231BF4FC8357A4FDFD1713960701D5
:100478004182835784FDFD1793960701C182035774
:10048800C4FD8357E4FDBA853E85EF00D0538357FA
:10049800C4FD2317F4FE1DA88357E4FD2316F4FEBC
:1004A80019A8835764FD3E85EF00904B8357C4FE1F
:1004B80085072316F4FE0357C4FE8357A4FDE362A1
:1004C800F7FE8357E4FE85072317F4FE0357E4FE7F
:1004D800835784FDE362F7FC01000100B250225407
:1004E80045618280011106CE22CC0010AA87AE8613
:1004F80032872317F4FEB6872316F4FEBA8723152E
:10050800F4FE8356C4FE0356E4FE0357C4FE835725
:10051800E4FEBA853E85EF00104B8357A4FE3E8566
:10052800EF0010440100F24062440561828001112D
:1005380006CE22CC0010AA882E852324C4FEB685B8
:100548003A86BE864287C6872317F4FEAA872316F3
:10055800F4FEAE872313F4FEB2872312F4FEB687A7
:10056800A301F4FEBA872301F4FEF9A0034734FE81
:10057800B1476313F702034624FE834734FE03574B
:1005880044FE835664FE8355C4FE0355E4FE328858
:10059800032684FE6D2859A0034734FEC147631320
:1005A800F702034624FE834734FE035744FE83566E
:1005B80064FE8355C4FE0355E4FE3288032684FE98
:1005C800FD24A9A8034734FEE1476313F702034655
:1005D80024FE834734FE035744FE835664FE835546
:1005E800C4FE0355E4FE3288032684FE392B3DA061
:1005F800034734FE930700026316F704034624FEFC
:10060800834734FE035744FE835664FE8355C4FE75
:100618000355E4FE3288032684FEB12F832784FE27
:1006280089072324F4FE834734FEC207C183035796
:10063800E4FEBA972317F4FE832784FE83C70700D6
:1006480095F711A00100F24062440561828079713A
:1006580006D622D40018AA882E85232CC4FCB68579
:100668003A86BE864287C687231FF4FCAA87231EC4
:10067800F4FCAE87231BF4FCB287231AF4FCB6877C
:10068800A309F4FCBA872309F4FCA30604FE8357E4
:10069800E4FD2314F4FE834734FD8D8393F7F70FAD
:1006A8003E87834734FD9D8B93F7F70FB337F000F0
:1006B80093F7F70FBA97139707014183834734FDE0
:1006C800C207C183B307F7022313F4FE9547231229
:1006D800F4FE231504FEC1A20357A4FEB7070020A9
:1006E80093860700BA878E07998F8A07998FB697DE
:1006F80003C70700832784FD83C707006317F7181C
:100708000357A4FEB707002093860700BA878E0711
:10071800998F8A07998FB69703C71700832784FD97
:10072800850783C707006312F716834734FDC2079E
:10073800C1830357E4FDBA97C207C183FD17139617
:1007480007014182834734FDC207C1830357C4FDB3
:10075800BA97C207C183FD1793960701C182035751
:10076800C4FD8357E4FDBA853E85EF00D025A30775
:1007780004FE21A2230704FEFDA0834724FDADE764
:100788000357A4FE8346F4FEB7070020138607002C
:10079800BA878E07998F8A07998FB297B69783C7BA
:1007A80037003E878347E4FEB357F740858B99C7E8
:1007B800835764FD3E85EF00B01A31A0835744FD8E
:1007C8003E85EF00F0198347D4FE8507A306F4FEA3
:1007D8000347D4FE834734FDB377F70293F7F70F47
:1007E800B5EFA30604FE69A00357A4FE8346F4FEF2
:1007F800B707002013860700BA878E07998F8A07E4
:10080800998FB297B69783C737003E878347E4FE30
:10081800B357F740858B99CB835664FD0357C4FDC6
:100828008357E4FD3686BA853E856D398357E4FDE6
:100838008507231FF4FC0357E4FD835784FE1D8FAF
:10084800834734FD631CF700835784FE231FF4FCA1
:100858008357C4FD8507231EF4FC19A88347E4FECB
:1008680085072307F4FE0347E4FE9D47E3F7E7F017
:100878008347F4FE8507A307F4FE8347F4FEC20707
:10088800C183035764FEE3E7E7EE01008357A4FE44
:1008980085072315F4FE0357A4FE835744FEE36D32
:1008A800F7E201000100B25022544561828079715B
:1008B80006D622D40018AA882E85232CC4FCB68517
:1008C8003A86BE864287C687231FF4FCAA87231E62
:1008D800F4FCAE87231BF4FCB287231AF4FCB6871A
:1008E800A309F4FCBA872309F4FCA30604FE835782
:1008F800E4FD2314F4FE834734FD8D8393F7F70F4B
:100908003E87834734FD9D8B93F7F70FB337F0008D
:1009180093F7F70FBA97139707014183834734FD7D
:10092800C207C183B307F7022313F4FE95472312C6
:10093800F4FE231504FE75AA0357A4FEB70700208A
:1009480093868708BA878E07BA978A07998FB697CA
:1009580003C70700832784FD83C707006315F718BB
:100968000357A4FEB707002093868708BA878E0727
:10097800BA978A07998FB69703C71700832784FD0C
:10098800850783C707006310F716834734FDC2073E
:10099800C1830357E4FDBA97C207C183FD171396B5
:1009A80007014182834734FDC207C1830357C4FD51
:1009B800BA97C207C183FD1793960701C1820357EF
:1009C800C4FD8357E4FDBA853E85EF00C07FA307C9
:1009D80004FE11A2230704FEEDA0834724FDBDE316
:1009E8000357A4FE8346F4FEB70700201386870842
:1009F800BA878E07BA978A07998FB297B69783C72F
:100A080037003E878347E4FEB357F740858B91C78D
:100A1800835764FD3E85A92729A0835744FD3E8559
:100A280081278347D4FE8507A306F4FE0347D4FE37
:100A3800834734FDB377F70293F7F70FB5EFA306B3
:100A480004FE69A00357A4FE8346F4FEB7070020FE
:100A580013868708BA878E07BA978A07998FB2973D
:100A6800B69783C737003E878347E4FEB357F740FE
:100A7800858B99CB835664FD0357C4FD8357E4FDEA
:100A88003686BA853E85B93C8357E4FD8507231F22
:100A9800F4FC0357E4FD835784FE1D8F834734FD20
:100AA800631CF700835784FE231FF4FC8357C4FD9F
:100AB8008507231EF4FC19A88347E4FE850723074E
:100AC800F4FE0347E4FE9D47E3F9E7F08347F4FEAD
:100AD8008507A307F4FE8347F4FEC207C1830357C3
:100AE80064FEE3E9E7EE01008357A4FE85072315BA
:100AF800F4FE0357A4FE835744FEE36FF7E20100B8
:100B08000100B250225445618280797106D622D400
:100B18000018AA882E85232CC4FCB6853A86BE8682
:100B28004287C687231FF4FCAA87231EF4FCAE87DE
:100B3800231BF4FCB287231AF4FCB687A309F4FC40
:100B4800BA872309F4FCA30604FE8357E4FD2314A3
:100B5800F4FE834734FD8D8393F7F70F3E87834771
:100B680034FD9D8B93F7F70FB337F00093F7F70F2A
:100B7800BA97139707014183834734FDC207C1839E
:100B8800B307F7022313F4FE95472312F4FE231547
:100B980004FEF1A20357A4FEB7070020938687132B
:100BA800BA878A07BA97139747001D8FB387E6005D
:100BB80003C70700832784FD83C70700631BF71853
:100BC8000357A4FEB707002093868713BA878A07BE
:100BD800BA9713974700B307F740B69703C71700AC
:100BE800832784FD850783C707006314F7168347A7
:100BF80034FDC207C1830357E4FDBA97C207C18316
:100C0800FD17139607014182834734FDC207C1834C
:100C18000357C4FDBA97C207C183FD17939607010E
:100C2800C1820357C4FD8357E4FDBA853E85612B15
:100C3800A30704FE39A2230704FED5A8834724FD91
:100C4800ADE70357A4FE8346F4FEB70700201386DA
:100C58008713BA878A07BA9713974700B307F740ED
:100C6800B297B69783C737003E878347E4FEB357EA
:100C7800F740858B91C7835764FD3E85D52129A010
:100C8800835744FD3E85E9298347D4FE8507A3069B
:100C9800F4FE0347D4FE834734FDB377F70293F796
:100CA800F70FC9E3A30604FE41A80357A4FE834631
:100CB800F4FEB707002013868713BA878A07BA9706
:100CC80013974700B307F740B297B69783C7370023
:100CD8003E878347E4FEB357F740858B81CF835621
:100CE80064FD0357C4FD8357E4FD3686BA853E8507
:100CF800EFF04FFF8357E4FD8507231FF4FC0357EC
:100D0800E4FD835784FE1D8F834734FD631CF70081
:100D1800835784FE231FF4FC8357C4FD8507231ED5
:100D2800F4FC19A88347E4FE85072307F4FE03476C
:100D3800E4FE9D47E3F4E7F08347F4FE8507A30745
:100D4800F4FE8347F4FEC207C183035764FEE3E45D
:100D5800E7EE01008357A4FE85072315F4FE035729
:100D6800A4FE835744FEE367F7E201000100B25096
:100D7800225445618280797106D622D40018AA8847
:100D88002E85232CC4FCB6853A86BE864287C68744
:100D9800231FF4FCAA87231EF4FCAE87231BF4FC54
:100DA800B287231AF4FCB687A309F4FCBA8723098F
:100DB800F4FCA30604FE8357E4FD2314F4FE8347E2
:100DC80034FD8D8393F7F70F3E87834734FD9D8B62
:100DD80093F7F70FB337F00093F7F70FBA97139716
:100DE80007014183834734FDC207C183B307F70274
:100DF8002313F4FE95472312F4FE231504FE75AA67
:100E08000357A4FEB70700209386072BBA879607D7
:100E1800BA978A07998FB69703C70700832784FD77
:100E280083C707006315F7180357A4FEB707002008
:100E38009386072BBA879607BA978A07998FB6972A
:100E480003C71700832784FD850783C7070063103E
:100E5800F716834734FDC207C1830357E4FDBA97E9
:100E6800C207C183FD17139607014182834734FDEA
:100E7800C207C1830357C4FDBA97C207C183FD17D0
:100E880093960701C1820357C4FD8357E4FDBA85D1
:100E98003E85152EA30704FE19A2230704FEF5A01C
:100EA800834724FDBDE30357A4FE8346F4FEB7073A
:100EB80000201386072BBA879607BA978A07998F57
:100EC800B297B69783C737003E878347E4FEB35788
:100ED800F740858B91C7835764FD3E85512429A02F
:100EE800835744FD3E85AD2C8347D4FE8507A30672
:100EF800F4FE0347D4FE834734FDB377F70293F734
:100F0800F70FBDEFA30604FE71A00357A4FE8346A6
:100F1800F4FEB70700201386072BBA879607BA97FF
:100F28008A07998FB297B69783C737003E8783475A
:100F3800E4FEB357F740858B81CF835664FD035792
:100F4800C4FD8357E4FD3686BA853E85EFF08FD918
:100F58008357E4FD8507231FF4FC0357E4FD8357FB
:100F680084FE1D8F834734FD631CF700835784FE7E
:100F7800231FF4FC8357C4FD8507231EF4FC19A81E
:100F88008347E4FE85072307F4FE0347E4FE9D47F5
:100F9800E3F8E7F08347F4FE8507A307F4FE8347E9
:100FA800F4FEC207C183035764FEE3E8E7EE0100DD
:100FB8008357A4FE85072315F4FE0357A4FE835721
:100FC80044FEE36FF7E201000100B250225445618C
:100FD8008280011106CE22CC00102326A4FE03270E
:100FE800C4FE9307803EB307F7023E85EF10006208
:100FF8000100F240624405618280011122CE001096
:101008002326A4FEB7070003B453B707000303273A
:10101800C4FE558FB8D30100724405618280011166
:1010280022CE00102326A4FEAE87A305F4FE832754
:10103800C4FE03A707408347B4FE5D8F8327C4FE21
:1010480023A0E7400100724405618280011122CE8D
:1010580000102326A4FEAE87A305F4FE8347B4FE42
:101068000327C4FE8A07BA971307F00F98C3010035
:10107800724405618280011122CE00102326A4FE4D
:10108800AE87A305F4FE8347B4FE0327C4FE8A0790
:10109800BA9723A0070001007244056182804111BC
:1010A80006C622C4000813050010813F9305F0030B
:1010B80037850140AD379305F0033785014079370F
:1010C8000100B240224441018280797106D622D4BF
:1010D8000018AA87A30FF4FCC14537850140613F7A
:1010E800A30704FE81A0854537850140693783073A
:1010F800F4FD63D70700894537850140813F29A062
:10110800894537850140853F8545378501403D3F05
:101118008347F4FD8607A30FF4FC8347F4FE850795
:10112800A307F4FE0347F4FE9D47E3FEE7FAC14533
:1011380037850140213F0100B25022544561828029
:10114800011106CE22CC0010AA87A307F4FE83471C
:10115800F4FE3E859D3F0100F240624405618280B5
:10116800011106CE22CC0010AA872317F4FE83575C
:10117800E4FEA183C207C18393F7F70F3E85B13719
:101188008357E4FE93F7F70F3E8581370100F2405D
:10119800624405618280011106CE22CC0010AA8724
:1011A800A307F4FEA14537850140F1358347F4FED6
:1011B8003E85213FA14537850140493D0100F24068
:1011C800624405618280011106CE22CC0010AA87F4
:1011D80036872317F4FEAE872316F4FEB28723154D
:1011E800F4FEBA872314F4FE1305A0026D37835763
:1011F800E4FE3E85B5378357A4FE3E859537130533
:10120800B002513F8357C4FE3E85993F835784FE01
:101218003E85B9371305C002BD3F0100F240624464
:1012280005618280411106C622C400088D3D9145A2
:1012380037850140893513054006613B914537855F
:1012480001402935130540066933930500023785A7
:101258000140ED3B13054006AD3B45452D3F1305C9
:101268008007853B1305100B3D371545D13D130508
:10127800C003F9351305C003E1351305200B213FE1
:1012880015457D3D1305C003653D1305C0034D3D60
:101298001305300B0937154565351305C0034D3562
:1012A8001305C003713D1545613D1305C003493D54
:1012B8001305C00371351305400BF13D0D45493544
:1012C8001305000CC93D130580029D3D21458D3D48
:1012D8001145BD351305100C7D3D1305000C8D35EA
:1012E8001305200C4D3D3545A13D0145913D1305A4
:1012F800300C55351305D008A1351305A0028935E2
:101308001305400C493D1305D0081D3D1305E00E9B
:10131800053D1305500C413569451D35130560031E
:101328009D3D1305000C293D1305000EAD351145F3
:10133800013D1305200229351D4519352945093573
:101348001305E002F53B13050003DD3B13055002CE
:10135800C53B1305A002ED3313058002D5331305F1
:101368006002F93B1305E002E13B1305A003C93B0A
:101378000145F9330545E9330D45D9334D45C933A1
:101388001305100E093D1145653B5945553B194557
:10139800453B354575331305D0025D3313056002AF
:1013A800453313053002693B13057002513B1305A1
:1013B800700279331305500261331305D0024933A3
:1013C8001305B003B53B0145A53B0545953B1145C4
:1013D800853B4D45B5331305A003753B15458D3346
:1013E800130590024D3B0100B24022444101828026
:1013F800011106CE22CC0010232604FEEF1020484F
:101408001535C1671387F7FF9306000A130600080E
:1014180081450145EFF0CF820148C14741677D17FB
:10142800C166938606803706002013060654F945E0
:101438000145EFF0CF8FCDB74D712326111423242A
:1014480081142322211523203115232E4113232C07
:101458005113232A611323287113800A2326A4EC2D
:101468002324B4EC2320C4EC2322D4EC232EE4EA76
:10147800232CF4EA232A04EB232814EB232E04FC60
:1014880093071006232CF4FC8327C4EB63DC0700C6
:1014980093071004232CF4FC8327C4EBB307F04014
:1014A800232EF4EA8327C4EB3E8AFD87BE8A528640
:1014B800D686032504EC832544ECEF10A0542A8734
:1014C800AE872328E4FC232AF4FC832604EC832734
:1014D800C4EB3E8BFD87BE8B5A87832704FD3307F9
:1014E800F7028327C4FD13861700232EC4FC338715
:1014F800E6408A078117A29723A8E7EE8327C4EB63
:101508003E89FD87BE89832744EC4E8763E5E70261
:10151800832744EC4E876397E700832704EC4A87C8
:1015280063EBE700032704FD832744FD2320E4EC55
:101538002322F4EC85BF010005A0832704EB138761
:1015480017002328E4EA0327C4EC14403E868325C9
:1015580084EC032544EB0297832784EB1387F7FF7A
:10156800232CE4EA0327C4FDE349F7FCB9A0832749
:10157800C4FD8A078117A29703A707EF8327C4FD35
:101588008A078117A29783A607EFA54763F6D700B6
:10159800832784FDD91719A093070003BA973E85BE
:1015A800832704EB138717002328E4EA0327C4ECF6
:1015B80014403E86832584EC02978327C4FD138755
:1015C800F7FF232EE4FCE344F0FA832704EB3E857F
:1015D8008320C1140324811403294114832901148D
:1015E800032AC113832A8113032B4113832B01136D
:1015F80071618280011122CE00102326A4FE2324CB
:10160800B4FE032684FE854663DFC6008327C4FE36
:101618009C439D07E19B938687000327C4FE14C360
:101628009843DC431DA8832684FE89CE8326C4FE06
:101638009442938546000326C4FE0CC29442368722
:10164800814721A88326C4FE944293854600032639
:10165800C4FE0CC29442368781473A85BE857244DF
:1016680005618280011122CE00102326A4FE2324C6
:10167800B4FE032684FE854663DFC6008327C4FEC6
:101688009C439D07E19B938687000327C4FE14C3F0
:101698009843DC432DA8832684FE91CE8326C4FE7E
:1016A8009442938546000326C4FE0CC294423687B2
:1016B800FD86B68729A88326C4FE944293854600F2
:1016C8000326C4FE0CC294423687FD86B6873A8547
:1016D800BE85724405618280011106CE22CC0010BD
:1016E8002326A4FE8327C4FE9C439D07E19B938683
:1016F80087000327C4FE14C39843DC433A85BE859C
:10170800EF10B052D307A5205385F720F24062446A
:1017180005618280597186D6A2D4A6D2CAD0801813
:10172800232EA4FA232CB4FA232AC4FA2328D4FAA1
:101738002326E4FA232404FC0DA881E4832784FCEF
:101748005DAB832744FB8507232AF4FA2685832784
:1017580084FC138717002324E4FC0327C4FB832697
:10176800C4FA3E86832584FB0297832744FB83C4FF
:10177800070093075002E392F4FC832744FB850794
:10178800232AF4FA832744FB2322F4FC930700025C
:10179800A307F4FCFD57232CF4FCFD57232AF4FC83
:1017A800FD572328F4FC232E04FC232004FC832764
:1017B80044FB13871700232AE4FA83C40700A6878B
:1017C8009387D7FD130750056360F75013972700D9
:1017D800B707002093878757BA979C438287930758
:1017E800D002A307F4FCE1B793070003A307F4FCB6
:1017F8007DBF232A04FCFD572328F4FC9307E0024D
:101808006395F400232804FC81A0832704FD63C0AA
:101818000702032704FDBA878A07BA9786073E8717
:10182800A687BA97938707FD2328F4FC31A80327D6
:1018380044FDBA878A07BA9786073E87A687BA976C
:10184800938707FD232AF4FC832744FB83C40700FE
:101858009307E002638AF4009307F00263FA9702A1
:101868009307900363E69702832744FB8507232A9F
:10187800F4FA69B7832704FB138747002328E4FA9F
:101888009C43232AF4FC31A085472320F4FC05B7A8
:101898000100832784FDE3DC07F0832744FD232C24
:1018A800F4FCFD57232AF4FC19B78327C4FD8507E8
:1018B800232EF4FCEDBD832704FB13874700232860
:1018C800E4FA8843832784FC138717002324E4FC65
:1018D8000327C4FB8326C4FA3E86832584FB02972C
:1018E80011A9832704FB138747002328E4FA03A9D7
:1018F800070063160900B707002013894756832796
:1019080084FD635BF0080347F4FC9307D00263058A
:10191800F708832484FD832744FDBE854A858921F1
:10192800AA87B387F440232CF4FC35A00345F4FCC4
:10193800832784FC138717002324E4FC0327C4FBB4
:101948008326C4FA3E86832584FB0297832784FD79
:10195800FD17232CF4FC832784FDE349F0FC2DA814
:101968002685832784FC138717002324E4FC032798
:10197800C4FB8326C4FA3E86832584FB02970509A7
:101988008327C4FD89C78347090091E30509832795
:1019980084FDFD17232CF4FC83440900A1C483278C
:1019A80044FDE3CF07FA832744FDFD17232AF4FCFF
:1019B800832744FDE3D607FA35A0832784FC1387E1
:1019C80017002324E4FC0327C4FB8326C4FA3E86BD
:1019D800832584FB130500020297832784FDFD17E6
:1019E800232CF4FC832784FDE349F0FC21A693070C
:1019F80004FB8325C4FD3E85B5312A87AE872324A1
:101A0800E4FE2326F4FE032784FE8327C4FE63D85E
:101A18000704832784FC138717002324E4FC032787
:101A2800C4FB8326C4FA3E86832584FB1305D002B3
:101A38000297032584FE8325C4FE014781473306A8
:101A4800A740328833380701B386B740B3870641C9
:101A5800BE863287B6872324E4FE2326F4FEA947F0
:101A68002320F4FEBDA8A9472320F4FE8DA0A1479A
:101A78002320F4FEA9A88547232EF4FC832784FCA1
:101A8800138717002324E4FC0327C4FB8326C4FA26
:101A98003E86832584FB130500030297832784FC75
:101AA800138717002324E4FC0327C4FB8326C4FA06
:101AB8003E86832584FB13058007029793078007DA
:101AC8006394F400C14711A0C1572320F4FE930783
:101AD80004FB8325C4FD3E85313E2324A4FE232632
:101AE800B4FE0347F4FC8327C4FA3EC0832884FC71
:101AF8003A88832784FD032704FE032684FE832671
:101B0800C4FE832584FB0325C4FBEFF0FF92232446
:101B1800A4FCCDA2930704FB3E857D3E2722A4FEAC
:101B2800872744FE530700F0D397E7A09DC7832774
:101B380084FC138717002324E4FC0327C4FB8326B3
:101B4800C4FA3E86832584FB1305D00202978727B3
:101B580044FED397F7202722F4FE832704FD63D59C
:101B680007008D472328F4FC832784FD63C30702FD
:101B7800032784FD832704FDB307F740232CF4FCD7
:101B8800832704FD6357F000832784FDFD17232C6A
:101B9800F4FCA9472320F4FE872744FED39707C007
:101BA8002324F4FEFD872326F4FE832784FED3F73F
:101BB80017D0072744FED377F7082722F4FE0347F8
:101BC800F4FC8327C4FA3EC0832884FC3A88832720
:101BD80084FD032704FE032684FE8326C4FE832592
:101BE80084FB0325C4FBEFF03F852324A4FC832753
:101BF80004FD6350F010814701482324F4FE232696
:101C080004FF832704FD232CF4FC93070003A30798
:101C1800F4FC832784FC138717002324E4FC0327A0
:101C2800C4FB8326C4FA3E86832584FB1305E002A1
:101C3800029719A8072744FEB707002087A7075768
:101C4800D377F7102722F4FE832704FD1387F7FFC5
:101C58002328E4FCE340F0FE072744FEB7070020F2
:101C680087A74757D377F700D39707C02324F4FEF5
:101C7800FD872326F4FE0347F4FC8327C4FA3EC0FD
:101C8800832884FC3A88832784FD032704FE0326DF
:101C980084FE8326C4FE832584FB0325C4FBEFF062
:101CA800AFF92324A4FCB1A02685832784FC1387DD
:101CB80017002324E4FC0327C4FB8326C4FA3E86CA
:101CC800832584FB02973DA0832784FC1387170094
:101CD8002324E4FC0327C4FB8326C4FA3E86832519
:101CE80084FB130550020297832744FC232AF4FA45
:101CF80011A001009DBC3E85B65026549654065945
:101D0800656182805D7106D622D40018232EA4FC5A
:101D18004CC010C454C418C85CC8232C0401232E1A
:101D2800140193070402232CF4FC832784FD9117E4
:101D38002324F4FE832784FE0147BE860326C4FDC0
:101D48008145B727008013854768EFF0BF9C23269D
:101D5800A4FE8327C4FE3E85B2502254616182806E
:101D6800797122D60018232EA4FC232CB4FC8327D7
:101D7800C4FD2326F4FE31A08327C4FE850723264D
:101D8800F4FE832784FD1387F7FF232CE4FC91C717
:101D98008327C4FE83C70700E5F30327C4FE832710
:101DA800C4FDB307F7403E85325445618280011176
:101DB80022CE0010B707004123A80702232604FEFD
:101DC80031A8370700418327C4FE9607BA9723A88E
:101DD80007108327C4FE85072326F4FE0327C4FEC5
:101DE8009D47E3D0E7FEB70700417D5798CBB7077B
:101DF80000417D5798C7B7070041054798DB0100A8
:101E0800724405618280011122CE00102326A4FEAF
:101E1800AE872322C4FEA305F4FE032744FE9147A0
:101E280063E4E714832744FE13972700B7070020CD
:101E38009387076DBA979C4382878327C4FE03A7BD
:101E480047408347B4FE5D8F8327C4FE23A2E74043
:101E58008327C4FE83A7C7400347B4FE1347F7FF91
:101E68007D8F8327C4FE23A6E74001A28327C4FEF3
:101E780003A747408347B4FE5D8F8327C4FE23A290
:101E8800E7408327C4FE03A7C7408347B4FE5D8F9E
:101E98008327C4FE23A6E740C9A88327C4FE83A7D7
:101EA80047400347B4FE1347F7FF7D8F8327C4FEDF
:101EB80023A2E7408327C4FE83A7C7400347B4FE95
:101EC8001347F7FF7D8F8327C4FE23A6E7408327A8
:101ED800C4FE83A787400347B4FE1347F7FF7D8FEF
:101EE8008327C4FE23A4E74049A08327C4FE83A711
:101EF80047400347B4FE1347F7FF7D8F8327C4FE8F
:101F080023A2E7408327C4FE03A7C7408347B4FE44
:101F18005D8F8327C4FE23A6E7408327C4FE83A7DB
:101F280087400347B4FE1347F7FF7D8F8327C4FE1E
:101F380023A4E7401DA88327C4FE83A7474003477F
:101F4800B4FE1347F7FF7D8F8327C4FE23A2E74023
:101F58008327C4FE03A787408347B4FE5D8F83278A
:101F6800C4FE23A4E74011A00100010072440561EA
:101F78008280411122C600083707000CB7072000ED
:101F8800BA97DC433E85324441018280011122CE5A
:101F980000102326A4FE3707000CB7072000BA97C5
:101FA8000327C4FE98C301007244056182800111B1
:101FB80022CE00102326A4FE3707000CB707200006
:101FC800BA970327C4FED8C3010072440561828012
:101FD800011106CE22CC00103D454D3F232604FEBC
:101FE80015A03707000C8326C4FE856793870780F2
:101FF800B6978A07BA977D5798C38327C4FE850783
:102008002326F4FE0327C4FE8547E3DCE7FC21A072
:10201800032544FE693FB13F2322A4FE832744FEE3
:10202800E5FB0145A537232404FE15A03707000C5E
:10203800832684FE856793870780B6978A07BA97B1
:1020480023A00700832784FE85072324F4FE0327A3
:1020580084FE8547E3DCE7FC735040300100F24022
:10206800624405618280411122C6000801A079718D
:1020780006D622D40018232EA4FC232CB4FC232A31
:10208800C4FC8327C4FD63D607080327C4FDB7072C
:10209800008093C7F7FFF98F2326F4FE0327C4FEB9
:1020A800AD476312F7040DA8B717002003A7C7A709
:1020B8008327C4FE8A07BA979C4391E36D37B71705
:1020C800002003A7C7A78327C4FE8A07BA979C43A3
:1020D80082970325C4FEE13D693D2326A4FE83279C
:1020E800C4FEF9F305A8B717002003A707A883279C
:1020F800C4FE8A07BA979C4391E3B537B717002007
:1021080003A707A88327C4FE8A07BA979C43829728
:1021180011A0913F0100B2502254456182804111C3
:1021280022C60008B70700209387877E9C473E8514
:10213800324441018280411122C60008B7070003DA
:10214800DC47C18BB337F00093F7F70F3E85324475
:1021580041018280411122C60008B7070003DC470D
:1021680093F70704B337F00093F7F70F3E8532442F
:1021780041018280411122C60008B7070003DC47ED
:102188008D8B09476386E70209476369F70289C7A8
:1021980005476389E7001DA0B70700209387877E5E
:1021A8009C4315A0B70700209387877EDC4321A8AE
:1021B800B70700209387877E9C4731A0B707002088
:1021C8009387877EDC473E853244410182804111F6
:1021D80006C622C40008793F2A87B70700039C5F18
:1021E8008507B357F7023E85B240224441018280F9
:1021F800411122C60008B7070003D847B7070003F4
:10220800719BD8C7B7070003D847B70700031377F0
:10221800B7FDD8C70100324441018280797106D6E2
:1022280022D40018232EA4FCE137D53DAA873E8589
:10223800092AB7070003DC472326F4FE8327C4FED8
:10224800DD9B2326F4FE8327C4FD81CF0327C4FD2D
:102258008547631EF7008327C4FE93E7870023267C
:10226800F4FE8327C4FE93E747002326F4FE832762
:10227800C4FE93E707022326F4FE0100B707000314
:102288000327C4FED8C78327C4FE918B89CB0100DE
:102298005D35AA8793C7170093F7F70FF5FB23243B
:1022A80004FE1DA8832784FE85072324F4FE032744
:1022B80084FE85679387873863F0E702232404FE4A
:1022C800B70700030327C4FE1377F7FDD8C7B7077E
:1022D80000030327C4FED8C7B53DAA8793C71700D4
:1022E80093F7F70FE1F38327C4FE93E7270023262C
:1022F800F4FEB70700030327C4FED8C70100B25095
:10230800225445618280011122CE0010AA87A307BA
:10231800F4FEB7070003D847C1779387F70F7D8F7F
:102328008347F4FE939687008347F4FEB207D58F60
:10233800BE86B7070003558FD8C7010072440561F0
:102348008280797106D622D40018232EA4FC832714
:10235800C4FD1387F7FFB7E7F50593870710B35751
:10236800F702A307F4FE8347F4FE3E85693F8347DF
:10237800F4FE3E85B250225445618280011122CE7E
:1023880000102326A4FE8327C4FE9C4F93F7070260
:10239800B337F00093F7F70F3E85724405618280EA
:1023A800397106DE22DC8000232EA4FC232CB4FC29
:1023B800232AC4FC2328D4FC2326E4FC2324F4FC8D
:1023C80039352322A4FE032744FE832784FDB3570F
:1023D800F70291832326F4FE0327C4FE832784FD96
:1023E800B307F7029207032744FEB307F7402324F5
:1023F800F4FE832784FE13972700832784FD8583B3
:102408003E97832784FDB357F7022324F4FE03275E
:1024180084FE9307F00363F9E7008327C4FE85076A
:102428002326F4FE232404FE032884FC8327C4FC0B
:10243800032704FD832644FD032684FE8325C4FE6A
:102448000325C4FD31200100F250625421618280CD
:10245800797122D600182326A4FE2324B4FE232251
:10246800C4FE2320D4FE232EE4FC232CF4FC232AD0
:1024780004FD8327C4FE23A807028327C4FE03277D
:1024880084FED8D38327C4FE032744FE98D70327A6
:1024980004FE8327C4FD5D8F832784FD5D8F83271A
:1024A80044FD5D8F8327C4FED8D78327C4FE130756
:1024B800F07FF8C38327C4FE23AC07028327C4FE3A
:1024C8001307103098DB8327C4FE23A407040100F8
:1024D800325445618280797106D622D40018232EA1
:1024E800A4FC232CB4FC232AC4FC232604FE05A840
:1024F80001000325C4FD5935AA87E5FF832784FD1C
:1025080013871700232CE4FC83C707003E87832723
:10251800C4FD98C38327C4FE85072326F4FE03273A
:10252800C4FE832744FDE365F7FC81473E85B2502E
:10253800225445618280011106CE22CC0010232648
:10254800A4FEAE87A305F4FE9307B4FE0546BE8538
:102558000325C4FE4937AA873E85F24062440561D7
:102568008280011122CE0010732300B8232664FE56
:102578000323C4FE1A88814893170800014773286B
:1025880000B0232404FF032884FE42868146336575
:10259800C700B3E5D7002A87AE873A85BE8572445F
:1025A80005618280797106D622D44AD24ED052CEA5
:1025B80056CC5ACA5EC80018232EA4FC8327C4FD33
:1025C8003E8A814A453E2A87B7470F0093870724EA
:1025D800B357F7023E89814933872A03B3874903F2
:1025E800BA9733072A03B33B2A033A8BDE97BE8B8D
:1025F8005A87DE873A85BE85B250225412598259CD
:10260800724AE24A524BC24B45618280797106D6C2
:1026180022D44AD24ED00018232EA4FC99372A89F6
:10262800AE890325C4FDBD3F2A86AE863307C9009F
:10263800BA85B3B52501B387D900B386F500B68747
:102648002324E4FE2326F4FE0100213F2A86AE86D9
:10265800032784FE8327C4FE3E85B685E3E7A5FEEF
:102668003E85B6856315B500B287E3E0E7FE010055
:10267800B25022541259825945618280011106CE06
:1026880022CC00102326A4FE8327C4FE93F7F70F5D
:10269800BE85375502404535AA873E85F2406244DB
:1026A80005618280011122CE00102326A4FEB707FF
:1026B80000209387877E0327C4FE98C701007244D1
:1026C80005618280411122C60008B7070020938760
:1026D800877EDC433E85324441018280011122CE4F
:1026E80000102326A4FEB7070003B45BB707000356
:1026F8000327C4FE558FB8DB010072440561828050
:10270800011122CE00102326A4FEB7070003B453FC
:10271800B70700030327C4FE558FB8D301007244DE
:1027280005618280011122CE0010F3670430232650
:10273800F4FE0100724405618280011122CE00106E
:10274800856793870780F3A747302326F4FE0100A7
:10275800724405618280411122C60008B707014012
:102768009C4B898BB337F00093F7F70F3E853244C3
:1027780041018280411122C60008B70701409843F1
:10278800B70701401367070198C3010032444101AC
:102798008280011122CE00102326A4FEAE87A30555
:1027A800F4FE8327C4FE03A707408347B4FE5D8F6A
:1027B8008327C4FE23A0E74001007244056182809C
:1027C800011122CE00102326A4FEAE87A305F4FE35
:1027D8008327C4FE83A707400347B4FE1347F7FFC8
:1027E8007D8F8327C4FE23A0E74001007244056162
:1027F8008280011122CE00102326A4FEAE87A305F5
:10280800F4FE8347B4FE0327C4FE8A07BA9713076A
:10281800F00F98C30100724405618280011122CE35
:1028280000102326A4FEAE87A305F4FE8327C4FE6A
:1028380003A707418347B4FE5D8F8327C4FE23A8FF
:10284800E7400100724405618280411122C60008F8
:1028580081473E85324441018280411106C622C427
:1028680000088D35AA873E85B24022444101828006
:10287800411122C600080100324441018280011141
:1028880006CE22CC00100545913DEFF04FD29307BC
:10289800000095CBB7E7F505938707102326F4FECC
:1028A8000545B93D4D3DAA8799CB453FAA873E8549
:1028B80097000000E70000002326A4FE11A05D3D5C
:1028C8000325C4FEC5335137AA873E85EFF01F950F
:1028D800EFF00FF0813D9535130500101535C14512
:1028E800378501407D35C1453785014019371305C6
:1028F80000103935B94537850140613DB9453785FF
:102908000140C53D13050040E53BD14537A50140D1
:10291800453DD14537A5014011370946D14537A571
:102928000140EFF04FCEB7070003BC532324F4FE59
:10293800B7070003032784FE13670740B8D3B7A778
:10294800014003A70742B7A701401367270023A048
:10295800E742B7070003032784FEB8D3B70700038D
:10296800BC532322F4FEB7070003832644FE056701
:1029780013070780558FB8D3B7B7014003A707429D
:10298800B7B701401367070423A0E742B70700035E
:10299800032744FEB8D3B71700203757024023A2B5
:1029A800E7A837052000A93BC14701478146130620
:1029B8000006F1659385052037550240EFF05F9ECC
:1029C800453DEFF02FFBAA873E85EF0050212A876F
:1029D800AE87B716002003A6869383A6C6933A85CA
:1029E800BE8541262A87AE873A86BE862167B717F5
:1029F800002013850791EFF0EFB00100F240624428
:102A0800056182802A83AE8832872A88AE876396DA
:102A18000620B71500209385C59763F1C80CC166D9
:102A28006377D60A9336061093C616008E0633557A
:102A3800D600AA9583C5050013050002AE96B30516
:102A4800D540630BD500B397B800B356D3003317FE
:102A5800B600D58F3318B3009355070133D3B702A7
:102A6800131607014182B3F7B7021A85B308660245
:102A78009396070193570801D58F63FC1701BA97FE
:102A88001305F3FF63E7E70063F517011305E3FF99
:102A9800BA97B3871741B3D8B70242081358080149
:102AA800B3F7B702B3061603C2073368F800C68740
:102AB800637BD8003A989387F8FF6366E8006374ED
:102AC800D8009387E8FF42055D8D814582803705F0
:102AD8000001C146E36DA6F4E14691BF11E2029000
:102AE800C167637FF6089336061093C616008E06F4
:102AF800B357D600BE9583C70500B6979306000264
:102B0800B385F6406395F608B387C8408545935862
:102B1800070133DE17031316070141829356080194
:102B2800B3F7170372853303C603C207D58F63FC57
:102B38006700BA971305FEFF63E7E70063F56700D0
:102B48001305EEFFBA97B387674033D317034208DC
:102B580013580801B3F71703B3066602C2073368B0
:102B6800F8009A87637BD8003A989307F3FF636667
:102B7800E8006374D8009307E3FF42055D8D828007
:102B8800B7070001C146E365F6F6E14695B7331786
:102B9800B600B3D6F80013550701B357F30033183E
:102BA800B30033D3A60213160701B398B8004182C5
:102BB800B3E71701B3F6A602B308660293950601B8
:102BC80093D60701CD8E9A8563FC1601BA969305B4
:102BD800F3FF63E7E60063F516019305E3FFBA9692
:102BE800B3861641B3D8A602C207C183B3F6A602BC
:102BF80033061603C206D58FC68663FCC700BA978C
:102C08009386F8FF63E7E70063F5C7009386E8FF5C
:102C1800BA97C205918FD58DDDBD63E1D514C16723
:102C280063FFF60213B70610134717000E07B7170E
:102C38000020B3D5E6009387C797AE9783C70700F0
:102C4800BA9713070002B305F7406311F702054569
:102C5800E3EE16E73335C300134515008280B70746
:102C680000014147E3E5F6FC6147D1B73357F60069
:102C7800B396B600D98E33D7F800B398B800B357D7
:102C8800F300B3E7170193D80601B35E170313984F
:102C98000601135808013316B60033771703330EAD
:102CA800D8031315070113D70701498F7685637C6D
:102CB800C70136971385FEFF6367D7006375C701A1
:102CC8001385EEFF36973307C741335E1703C207F4
:102CD800C183337717033308C8034207D98F728734
:102CE80063FC0701B6971307FEFF63E7D70063F598
:102CF80007011307EEFFB6974205416E598D9306FB
:102D0800FEFF3377D500B3870741F18E13580501CD
:102D18004182B308D702B306D8023307C702330883
:102D2800C8023306D70013D7080132976373D70058
:102D3800729893560701C29663E0D702E397D7D8F3
:102D4800C167FD177D8F4207B3F8F8003313B3004E
:102D580046978145E37CE3D67D1585BB81450145D2
:102D68008280797122D456CA62C406D626D24AD045
:102D78004ECE52CC5AC85EC666C22A84328CB68AF7
:102D8800F324200013D845011399C5001378F87F60
:102D98001359C90013DAF501630608029307F07F97
:102DA800630DF806935BD5010E09B3EB2B01B7074A
:102DB8008000B3EBFB0093193500130B18C0814C4E
:102DC800014495A8B36BA90063880B0C630C090236
:102DD8004A85EF001007930755FF71476349F702CB
:102DE800F54B930985FFB38BFB4033193901B35B6E
:102DF8007401B3EB2B01B31934011308D0C0330BA2
:102E0800A84075BFEF00F00313050502E9B7930B5F
:102E180085FDB31B74018149CDB7B36BA9006381EC
:102E28000B081354390113441400AA891204CA8BDD
:102E3800130BF07F8D4C13D74A011399CA001377EF
:102E4800F77FE2871359C90093DAFA0139CF93065D
:102E5800F07F6303D70A0E099357DC01B3E7270114
:102E68003709800033E92701130717C093173C007F
:102E780081463308EB4013972C00558F7D17B945D1
:102E880033465A0163E6E50AB71500200A07938519
:102E980005942E97184302878149014B854C0DB73D
:102EA8008149130BF07F894C21BFB3678901B5C3F2
:102EB800630909024A857127930655FFF14763C7DD
:102EC800D7027547930785FF158F3319F9003357D4
:102ED800EC0033692701B317FC001307D0C0098F32
:102EE80041BF6285B92F13050502F9B7130985FD9E
:102EF80033192C018147D5B73366890105C23707D5
:102F080008003377E9000DE31307F07F8D4641444D
:102F18008DB70149814701478546A1BF01498147CE
:102F28001307F07F8946B1B71307F07F8D4691B735
:102F38006366790163932B2763E1F9269396FB0176
:102F480013D719001395F90193DB1B00B3E9E600C9
:102F58009318890093D68701B3E6160193D8080120
:102F6800B3DE1B03139306011353030193958700E4
:102F780093D70901B3FB1B03768E3307D303C20B28
:102F8800B3E7770163FCE700B697138EFEFF63E7AC
:102F9800D70063F5E700138EEEFFB697998F33DFFE
:102FA8001703139709014183B3F71703B30EE3031C
:102FB800C2075D8FFA87637CD70136979307FFFFB7
:102FC8006367D7006375D7019307EFFF3697420E03
:102FD8004169B362FE00130EF9FFB3F7C20113DFB4
:102FE800020133FEC5013307D74193DE0501B383E0
:102FF800C703B309CF03B387FE02B38F370193D753
:103008000301FE97330FDF0363F337014A9F93DF12
:103018000701FA9F416F7D1FB3F7E701C207B3F3BA
:10302800E3019E976367F7011689631EF703637CC4
:10303800F5022E95333FB500369F7A971389F2FF34
:1030480063E6E6006391E602636FB5006366F70125
:10305800639BEF006379F5002E95333FB500369FEB
:103068001389E2FF7A97330FF5403307F741333579
:10307800E501098FFD576386E60EB3521703935790
:103088000F0133771703968F330553024207D98F01
:1030980063FCA700B697938FF2FF63E7D70063F549
:1030A800A700938FE2FFB697898F33D517031317BD
:1030B8000F014183B3F717033303A302C207D98F64
:1030C8002A8763FC6700B6971307F5FF63E7D70005
:1030D80063F567001307E5FFB697C20FB3EFEF007C
:1030E80013970F0141833385674093D70F0133034B
:1030F800EE02338EC703B387FE02B38EEE02135778
:103108000301F29E76976374C701C168C697935806
:103118000701BE98C167FD177D8F42073373F3001F
:103128001A9763661501FE87631B15031DCB369539
:103138009387FFFF6361D502636615016311150369
:1031480063FDE50013931500B335B300B6952E95CE
:103158009387EFFF9A85631415016304B70093E71B
:1031680017009305F83F6358B01013F777003DCB6D
:103178000947136414006386E4060D47638FE4046B
:10318800B5E013F7F7009146630ED704138747009D
:10319800B337F7003E99BA87B1A07D1801454DBBFA
:1031A80052865E89CE87E6860D476380E62205470C
:1031B8006384E6220947E396E6FA29A05686EDB726
:1031C80013648400014581471307F07FA1A03709E4
:1031D8000800814701468D46C1BF09E6138787006D
:1031E80045BF6DFE370700013377E90001CB37078C
:1031F80000FF7D173379E900930508401307E07F46
:103208006346B70413D737009317D901D98F1355DD
:1032180039002E87B706F07F52073205758F318146
:10322800498F7E06B366C7003E85B68519C07320F0
:103238001400B250225492540259F249624AD24AB6
:10324800424BB24B224C924C456182808947638243
:10325800F4028D476387F40091E481471307F07FF8
:1032680029A065DEFD571307E07F136454003E85EF
:1032780055B765F6C5BF0547B1E193F677004A87AC
:1032880095CA8946136414006385D4028D46638EFB
:10329800D4008DE093F6F7001145638DA60013B7AF
:1032A800C7FF134717004A9731A009E613B787FFEE
:1032B800CDBF6DFE618313471700058B05450D8D46
:1032C8009306800363C0A60CFD4663C9A6041308D1
:1032D800E841B3D5A700B316090133980701CD8E8D
:1032E80033380001B3E706013355A90093F6770098
:1032F800B9CE894613641400638AD4048D46638367
:10330800D404B1E493F6F70091456382B60493863A
:103318004700B3B7F6003E95B68715A885568D8E3B
:1033280093080002B356D9008145630615011308B6
:10333800E843B3150901DD8DB335B000B3E7B60036
:1033480001456DB709E693868700E1B76DFEB706BC
:103358008000E98E81CA136414000145814705E3A2
:1033680005474DBD93D637009317D501D58F0D81ED
:10337800E30207EA13771400E30E07E80147136432
:10338800240049BDB3E7270189CF89471364140096
:103398006382F4028D47638BF400854791E095477B
:1033A8008D831364240001450147ADB5A5476DDA47
:1033B8008547FDB7A5476DF6E5BF37050800814786
:1033C8001307F07F01464144B1B53705080081472E
:1033D8001307F07F01463DBD01458147F1B7411113
:1033E80022C406C62A841DCDA92C1307E041A9478B
:1033F800098F63C4A702AD47898F5505B357F400F9
:103408003314A400B2402285B20722445207B18384
:10341800B366F700B685410182805515B317A4003D
:103428000144CDB781470147F1BF7326200013D867
:1034380045011378F87F9397C50013071800A583F3
:103448009356D5011377E77FDD8EFD8193173500FD
:1034580063040716930808C81307E00F635B170592
:103468006300061A8D476319F600638B0518FD572C
:103478009308E00F014711A88947E31AF6FE639104
:1034880005180147FD579308E00F1548894613684A
:1034980018006304D6188D46630DD61619E693F600
:1034A800F70011456383A600910729C31368280014
:1034B80035A86342100F255763C5E8103707800009
:1034C8007945D98E330515417D476349A706130809
:1034D80028C833D5A700B3970701B337F000B396D0
:1034E8000601D58FC98FB5EF814801483707000419
:1034F8007D8F11CB85081307F00F6383E812370718
:1035080000FC7D17F98F13D737009307F00F6396E8
:10351800F80001C737074000814593977801B7063F
:10352800807F2607F58F2583D98FFE05CD8F63040D
:10353800080073201800538507F082807957B30874
:10354800174113030002B3D816010147630665004B
:10355800130728CA3397E6005D8F3337E000B3E7D7
:10356800E8001397170093767700014899CE8946AB
:103578006303D6088D46630BD606054819E693768D
:10358800F70011456383A60011076D8313471700E1
:10359800058B814811A81A053335A0008E06F583DE
:1035A800558DC98F0147014893F67700E39006EEE1
:1035B80015DF13771800D5BDD58F6316080081482D
:1035C80095D7854779BFB1C39307F07F631EF8008D
:1035D80013D866011348180012088E06B7070002B0
:1035E800D58F9308F00FC9B70148C5BF2E88D1FD04
:1035F8002107054859BF0548C9D921072E8871B741
:1036080081479308F00F1548D5B501489308F00F86
:10361800F1BDE39C05E8A10749BDE38805E8E5BFDE
:10362800814709CE0D476317E60089C9FD579308FE
:10363800E00F29A00947E31BE6FEEDD913685800FF
:10364800D9B5C1676376F5029337051093C717009C
:103658008E0737170020930600029D8E3355F5001C
:103668009307C797AA9703C507003385A6408280AA
:1036780037070001C147E36EE5FCE147D9BF000009
:10368800E4B8AD200020002000FE0322022202221E
:1036980002FE032202200020002000E699AFFC0170
:1036A8000401FC010401FC012000FF070401FC01E6
:1036B800200024013202E59BADFE070204FA040251
:1036C800040204FE05520452044A0586050204FE5B
:1036D80007E794B510001000FF0111011101FF0167
:1036E80011011101FF0111041004E007E5AD90007C
:1036F80000FC018000400020002000FF072000207F
:103708000020002000380000E4B8AD800080008070
:10371800008000FC1F84108410841084108410FC26
:103728001F84108000800080008000E699AFF80FA9
:103738000808F80F0808F80F8000FF7F0000F80F4E
:1037480008080808F80F80008410A2204000E59BB4
:10375800AD0000FE3F0220F22702200220FA2F22AD
:103768002122212221122912290A2E0220FE3F029B
:1037780020E794B5800080008000FC1F841084102E
:103788008410FC1F841084108410FC1F8450804017
:103798008040007FE5AD900000FE1F000800040097
:1037A8000280018000FF7F80008000800080008010
:1037B800008000A000400000E4B8AD000000000058
:1037C8000000180000080000080000080008081899
:1037D800F8FF1F18081818081818081818081818D3
:1037E8000818180818F8FF1F08080800080000083B
:1037F8000000080000080000180000180000180069
:10380800000000E699AF000000000000400006C07C
:10381800FF07400006C0FF07400006C0FF0740083A
:1038280002003000FEFF3F000000C0FF07C000029A
:10383800C00002C00002C0FF0380100080110160B8
:10384800100E3010180C1E30001C00000000E59B04
:10385800AD000000000000080030F8FF1F0800104D
:1038680008C010083F10080010080010080013C80E
:10387800FF10082210082210082210082210082120
:103888001208211488601648C01328001008001078
:10389800F8FF1F080010000000E794B500000000C2
:1038A8000000001800000800000800000800F0FFF1
:1038B8000F100804100804100804100804F0FF078B
:1038C800100804100804100804100804F0FF07107A
:1038D800080000081000081000082000183000F048
:1038E8001F000000E5AD900000000000000000048B
:1038F800F0FF0F00000600000100C00000280000D3
:103908001800001800001830FEFF7F00180000188B
:103918000000180000180000180000180000180027
:10392800001800001800001F00000C000000000034
:10393800E4B8AD00000000000000000080000000B6
:10394800800100008001000080010000800100006B
:103958008001001080010CF0FFFF0F30800104305F
:10396800800104308001043080010430800104307B
:103978008001043080010430800104F0FFFF07302B
:1039880080010430800104008001000080010000F3
:10399800800100008001000080010000800100001B
:1039A800800100008001000080010000800000000C
:1039B800000000E699AF00000000000000000000D1
:1039C80000000001800100FFFF01000380010003E7
:1039D800800100FFFF01000380010003800100FF58
:1039E800FF0100818100000003000000031CFCFFB0
:1039F800FF3F000040000003C00100FFFF0100037B
:103A0800C0000003C0000003C00000FFFF00000169
:103A1800410000040100000E7100000781018001CF
:103A280001076000010E1898011C04E0011800C08D
:103A3800000000000000E59BAD0000000000000051
:103A48000000000008F0FFFF1F3000000C300000ED
:103A58000C3000100C30FE3F0C3004000C3000001D
:103A68000C3000000C3000000C3000C00CF0FFFFE0
:103A78000D3030060E3030060C3010060C301006B3
:103A88000C3010060C3018860C3018860C300806DE
:103A98000D300C860D3006EE0F3002FC0D300100A3
:103AA8000CF000000C3000000CF0FFFF0F3000009D
:103AB8000C1000000400000000E794B500000000AE
:103AC8000000000000C0000000C0010000C00000AD
:103AD80000C0000000C0000000C00000E0FFFF03BD
:103AE80060C0000360C0000360C0000360C0000342
:103AF80060C0000360C00003E0FFFF0360C0000374
:103B080060C0000360C0000360C0000360C0000321
:103B1800E0FFFF0360C0000160C0000000C00008B3
:103B280000C0001000C0001000C0001800C001381C
:103B38000080FF1F0000000000000000E5AD9000BD
:103B4800000000000000000000000000000003C0AA
:103B5800FFFF07000080070000C0000000600000B1
:103B680000180000000C0000800300008003000023
:103B7800800100008001080080011CFCFFFF3F005D
:103B88008001000080010000800100008001000029
:103B98008001000080010000800100008001000019
:103BA8008001000080010000800100008001000009
:103BB800FC010000E00000004000000000000000E0
:103BC800E4B8ADE699AFE59BADE794B5E5AD9000F7
:103BD800496D706C656D656E74206D61696E28291C
:103BE800210A0000286E756C6C29000025730A00F4
:103BF80000002041BD37863590180080D01C008019
:103C0800B01C0080D01C0080D01C0080D01C00801C
:103C1800D01C00807C180080D01C0080D01C008044
:103C2800E6170080FA170080D01C0080F01700808B
:103C3800FA170080FA170080FA170080FA17008038
:103C4800FA170080FA170080FA170080FA17008028
:103C5800FA170080D01C0080D01C0080D01C008087
:103C6800D01C0080D01C0080D01C0080D01C00809C
:103C7800D01C0080D01C0080D01C0080D01C00808C
:103C8800D01C0080D01C0080D01C0080D01C00807C
:103C9800D01C0080D01C0080D01C0080D01C00806C
:103CA800D01C0080D01C0080D01C0080D01C00805C
:103CB800D01C0080D01C0080D01C0080D01C00804C
:103CC800D01C0080D01C0080D01C0080C41A00804A
:103CD800D01C0080D01C0080D01C0080D01C00802C
:103CE800D01C0080D01C0080D01C0080D01C00801C
:103CF800D01C0080D01C0080BE180080F6190080FF
:103D0800D01C00801C1B0080D01C0080B6170080CF
:103D1800F6190080D01C0080D01C0080B2180080EA
:103D2800D01C0080D01C0080761A00807E1A00808B
:103D3800D01C0080D01C0080EA180080D01C0080B5
:103D48006E1A0080D01C0080D01C0080C41A00802D
:103D5800421E0080741E0080A21E0080F21E008099
:103D68003E1F00800000000000000000000000006E
:103D7800000000000000000000000000000000003B
:103D8800000000000000000000000000000000002B
:103D9800000000000000000000000000000000001B
:103DA800000000000000000000000000000000000B
:103DB80000000000000000000000000000000000FB
:103DC80000000000000000000000000000000000EB
:103DD80000000000000000000000000000000000DB
:103DE80000000000000000000000000000000000CB
:103DF80000000000000000000000000000000000BB
:103E080000000000000000000000000000000000AA
:103E1800000000000000000000000000000000009A
:103E2800000000000000000000000000000000008A
:103E3800000000000000000000000000000000007A
:103E4800000000000000000000000000000000006A
:103E5800000000000000000000000000000000005A
:103E680000000000000000008096980000127A0010
:103E780000E1F50580F0FA024D494900524D4949E3
:103E8800000000004D6163206D656469613A20207F
:103E980020202025730A00004D6163206D61636155
:103EA8006464723A20202030782530327825303406
:103EB800780A00004D616320706879616464723A21
:103EC800202020307825780A000000004D6163200A
:103ED8006175746F6E65673A202020307825780AFE
:103EE800000000004D616320696E7465726661634D
:103EF800653A20307825780A000000004D6163207B
:103F08006C6F6F706261636B3A2020307825780A95
:103F1800000000004D6163206D64637363616C652C
:103F2800723A20307825780A000000004D6163203D
:103F38006475706C65783A20202020307825780ADE
:103F4800000000004D61632073706565643A2020AD
:103F5800202020307825780A000000007965730059
:103F68006E6F00004D616320706879206175746F11
:103F78006E656720646F6E653A2025732C206C6926
:103F88006E6B207374617475733A2025730A000090
:103F98000A496E697420646F6E652E20434C4B3A53
:103FA80020252E33664D487A2C205254433A20253A
:103FB80064487A0A000000000000000080842E4156
:103FC800C8310080E0330080C4310080E0330080D5
:103FD800C2330080E0330080C4310080CC310080DF
:103FE800CC310080C2330080C4310080A831008009
:103FF800A8310080A8310080D6310080000102027B
:104008000303030304040404040404040505050568
:104018000505050505050505050505050606060644
:104028000606060606060606060606060606060628
:104038000606060606060606060606060707070714
:1040480007070707070707070707070707070707F8
:1040580007070707070707070707070707070707E8
:1040680007070707070707070707070707070707D8
:1040780007070707070707070707070708080808C4
:1040880008080808080808080808080808080808A8
:104098000808080808080808080808080808080898
:1040A8000808080808080808080808080808080888
:1040B8000808080808080808080808080808080878
:1040C8000808080808080808080808080808080868
:1040D8000808080808080808080808080808080858
:1040E8000808080808080808080808080808080848
:0C40F8000808080808080808080808085C
:08410400E406002098070020EA
:040000058000000077
:00000001FF
